:100000000C942E010C94B2010C94DF010C94560157
:100010000C9456010C9456010C9456010C94760ADB
:100020000C9456010C9456010C9456010C945601F4
:100030000C9456010C9456010C9456010C945601E4
:100040000C940C020C9456010C948A050C945601E5
:100050000C9456010C9456010C9456010C945601C4
:100060000C94001E0C945601A21E501E501E501ED1
:10007000501E501E501E501EAC1E501E501E501EB4
:10008000501E501E501E501EAC1E501E501E501EA4
:10009000501E501E501E501EB41E501E501E501E8C
:1000A000501E501E501E501EC31E501E501E501E6D
:1000B000501E501E501E501EB41E501E501E501E6C
:1000C000501E501E501E501EEE1E501E501E501E22
:1000D000501E501E501E501EF91E501E501E501E07
:1000E000501E501E501E501E761E501E501E501E7A
:1000F000501E501E501E501E891E501E501E501E57
:10010000501E501E501E501E6A1E501E501E501E65
:10011000501E501E501E501E7D1E501E501E501E42
:10012000501E501E501E501E991E501E501E501E16
:10013000501E501E501E501E991E501E501E501E06
:10014000501E501E501E501E991E501E501E501EF6
:10015000501E501E501E501E991E501E501E501EE6
:10016000501E501E501E501E611E501E501E501E0E
:10017000501E501E501E501E661E501E501E501EF9
:10018000501E501E501E501E611E501E501E501EEE
:10019000501E501E501E501E661E501E501E501ED9
:1001A000501E501E501E501ECE1E501E501E501E61
:1001B000501E501E501E501E261E501E501E501EF9
:1001C000501E501E501E501E261E501E501E501EE9
:1001D000501E501E501E501E3B1E501E501E501EC4
:1001E000501E501E501E501E931E501E501E501E5C
:1001F000501E501E501E501E931E00000000240072
:1002000027002A0000000000250028002B00000025
:10021000000023002600290004040404040404044C
:1002200002020202020203030303030301020408A1
:100230001020408001020408102001020408102050
:100240000000000700020100000304060000000097
:1002500000000000020058011D07221811241FBED3
:10026000CFEFD8E0DEBFCDBF12E0A0E0B1E0E0E527
:10027000F5E502C005900D92A635B107D9F713E058
:10028000A6E5B2E001C01D92AE3CB107E1F712E075
:10029000CCE5D2E004C02297FE010E94BB26C63501
:1002A000D107C9F70E945D010C94A62A0C940000A6
:1002B00087E592E00E94C71608950E94BE028DE075
:1002C00061E00E9492038DE061E00E94E40368EE29
:1002D00073E080E090E00E9489028DE060E00E947F
:1002E000E40368EE73E080E090E00E948902EBCFC7
:1002F000823008F00895E82FF0E0EE0FFF1FE85A73
:10030000FD4F71836083813041F0809169008C7F63
:10031000842B80936900E89A089580916900440FC6
:10032000551F440F551F837F842B80936900E99AE2
:100330000895823008F00895813051F0E898E82F50
:10034000F0E0EE0FFF1FE85AFD4F11821082089572
:10035000E998E82FF0E0EE0FFF1FE85AFD4F1182F9
:100360001082F5CF1F920F920FB60F9211242F9388
:100370003F934F935F936F937F938F939F93AF932D
:10038000BF93EF93FF938091580290915902009789
:1003900029F0E0915802F09159020995FF91EF91EF
:1003A000BF91AF919F918F917F916F915F914F918D
:1003B0003F912F910F900FBE0F901F9018951F9295
:1003C0000F920FB60F9211242F933F934F935F9389
:1003D0006F937F938F939F93AF93BF93EF93FF930D
:1003E00080915A0290915B02009729F0E0915A02A5
:1003F000F0915B020995FF91EF91BF91AF919F91B1
:100400008F917F916F915F914F913F912F910F90BD
:100410000FBE0F901F9018951F920F920FB60F925C
:1004200011242F933F938F939F93AF93BF9380910A
:10043000600290916102A0916202B09163023091DA
:1004400064020196A11DB11D232F2D5F2D3720F0D1
:100450002D570196A11DB11D209364028093600267
:1004600090936102A0936202B093630280915C0258
:1004700090915D02A0915E02B0915F020196A11D74
:10048000B11D80935C0290935D02A0935E02B093D5
:100490005F02BF91AF919F918F913F912F910F90EC
:1004A0000FBE0F901F9018958FB7F894209160029F
:1004B0003091610240916202509163028FBFB90195
:1004C000CA0108959FB7F89420915C0230915D02B3
:1004D00040915E0250915F0286B5A89B06C08F3F97
:1004E00021F02F5F3F4F4F4F5F4F9FBF542F432F40
:1004F000322F2227280F311D411D511D220F331F7E
:10050000441F551F220F331F441F551FB901CA0135
:100510000895EF92FF920F931F93CF93DF937B0188
:100520008C010E946202EB01E114F1040105110546
:10053000A1F00E9462026C1B7D0B83E0683E78078D
:10054000C0F30894E108F10801091109C851DC4F12
:10055000E114F1040105110561F7DF91CF911F91BD
:100560000F91FF90EF900895019739F0880F991F30
:10057000880F991F02970197F1F70895789484B531
:10058000826084BD84B5816084BD85B5826085BD8F
:1005900085B5816085BDEEE6F0E080818160808375
:1005A000E1E8F0E010828081826080838081816058
:1005B0008083E0E8F0E0808181608083E1EBF0E01F
:1005C000808184608083E0EBF0E0808181608083C3
:1005D000EAE7F0E0808184608083808182608083AC
:1005E0008081816080838081806880831092C100D7
:1005F00008958093000108958E3008F08E50877022
:10060000909100019295990F990F907C982B90935F
:100610007C0080917A00806480937A0080917A00D7
:1006200086FDFCCF2091780030917900932F80E0F7
:1006300030E0282B392BC90108951F93CF93DF9306
:10064000182FEB0161E00E949203209759F1CF3FF0
:10065000D105A1F0E12FF0E0E05CFD4F8491833003
:10066000E1F1843098F0863069F1873009F44FC0A9
:10067000843009F43FC0C038D105A4F0812F61E077
:100680000E94E403DF91CF911F910895813091F092
:10069000823089F784B5806284BDC8BDDF91CF9177
:1006A0001F910895812F60E00E94E403DF91CF91B4
:1006B0001F91089584B5806884BDC7BDDF91CF9137
:1006C0001F9108958091B00080688093B000C0931E
:1006D000B300DF91CF911F910895809180008068D1
:1006E00080938000D0938900C0938800DF91CF91E0
:1006F0001F91089580918000806280938000D09344
:100700008B00C0938A00DF91CF911F910895809153
:10071000B00080628093B000C093B400DF91CF91AD
:100720001F91089590E0FC01E45DFD4F2491FC01D0
:10073000E85EFD4FE491EE2379F0F0E0EE0FFF1F4D
:10074000E650FE4FA591B491662339F09FB7F89417
:100750008C91822B8C939FBF08959FB7F8948C91B6
:10076000209582238C939FBF0895833039F1843084
:1007700060F08630C9F0873069F0843051F48091A0
:1007800080008F7D809380000895813099F08230C1
:1007900039F008958091B0008F7D8093B000089566
:1007A00084B58F7D84BD08958091B0008F7780934C
:1007B000B000089584B58F7784BD0895809180003E
:1007C0008F778093800008950F931F93DF93CF93CB
:1007D0000F92CDB7DEB7282F30E0F901E05CFD4F76
:1007E0008491F901E45DFD4F0491285E3D4FF901CC
:1007F0001491112391F0882319F5E12FF0E0EE0F09
:10080000FF1FEC5FFD4FA591B491662361F09FB788
:10081000F8948C91802B8C939FBF0F90CF91DF9198
:100820001F910F9108959FB7F8948C9100958023A4
:100830008C939FBF0F90CF91DF911F910F910895DF
:1008400069830E94B5036981D8CF0F931F93282F26
:1008500030E0F901E05CFD4F8491F901E45DFD4F6A
:100860000491285E3D4FF90114911123C9F08823AA
:10087000E9F4E12FF0E0EE0FFF1FE25FFD4FA591DD
:10088000B4918C9120E030E0802321F4C9011F91C4
:100890000F91089521E030E0C9011F910F91089553
:1008A00020E030E0C9011F910F9108950E94B50327
:1008B000E0CF6F927F928F929F92AF92BF92CF9232
:1008C000DF92FF920F931F93CF93DF93962F682FA2
:1008D00070E0FB01E45DFD4F1491685E7D4FFB010C
:1008E000F4909923D1F1012FCA01B90120E83EE328
:1008F00040E050E00E9426260E94452659016A01E8
:10090000AF2DB0E0AA0FBB1FA25FBD4F20E030E0CB
:10091000A901FD01C591D49104C02F5F3F4F4F4FF6
:100920005F4F888181230817D1F42A153B054C05B8
:100930005D0599F720E030E0A901B901CA01DF9116
:10094000CF911F910F91FF90DF90CF90BF90AF900C
:100950009F908F907F906F90089500E0C5CFFD012C
:10096000C591D49104C02F5F3F4F4F4F5F4F888197
:100970008123081731F02A153B054C055D0599F7D1
:10098000D9CF888181230817A1F52A153B054C058D
:100990005D0581F2662477244301FD01C591D49160
:1009A0000CC0D401C301820F931FA41FB51FA8164A
:1009B000B906CA06DB0609F4BDCF0894611C711C98
:1009C000811C911C88818123081759F3C401B3014C
:1009D00028E032E540E050E00E9426266058714C45
:1009E0008F4F9F4F20E83EE340E050E00E944526B5
:1009F000A4CF21E030E040E050E09FCFAF92BF9223
:100A0000CF92DF92FF920F931F93CF93DF93082F24
:100A1000162FF42EC7E0D0E0C22EDD2487E0A82EEA
:100A2000B12C1CC0B5016C1B7D0BC60102C0959595
:100A300087956A95E2F7BC0161707070802F0E9403
:100A4000E403812F61E00E94E403812F60E00E94B3
:100A5000E40321979FEFCF3FD90779F0FF2011F3EF
:100A6000B6010C2E02C0759567950A94E2F7617085
:100A70007070802F0E94E403E4CFDF91CF911F912B
:100A80000F91FF90DF90CF90BF90AF900895CF92DD
:100A9000DF92EF92FF920F931F93CF93DF93082F74
:100AA000162FE42EC7E0D0E0FF2497E0C92ED12C0A
:100AB00016C0802F0E94250496012C1B3D0BAC0113
:100AC00002C0440F551F2A95E2F7F42A812F60E0F7
:100AD0000E94E40321973FEFCF3FD30789F0812F96
:100AE00061E00E94E403EE2021F3802F0E942504A0
:100AF0000C2E02C0880F991F0A94E2F7F82AE6CF5D
:100B00008F2DDF91CF911F910F91FF90EF90DF908C
:100B1000CF9008951F920F920FB60F9211242F932A
:100B20003F934F935F936F938F939F93EF93FF93B5
:100B30006091C6002091E5023091E602C90101965C
:100B40008F7790704091E7025091E80284179507E3
:100B500041F02B593D4FF90160839093E602809359
:100B6000E502FF91EF919F918F916F915F914F916E
:100B70003F912F910F900FBE0F901F9018958F925D
:100B8000AF92CF92DF92EF92FF920F931F93DF937A
:100B9000CF93CDB7DEB7FC0185E091E091838083F0
:100BA0007383628355834483378326831187008749
:100BB000F386E286D586C486A68687868D85808B59
:100BC0008E85818B8F85828BCF91DF911F910F91C5
:100BD000FF90EF90DF90CF90AF908F9008958F921D
:100BE000AF92CF92DF92EF92FF920F931F93DF931A
:100BF000CF93CDB7DEB7FC0185E091E09183808390
:100C000073836283558344833783268311870087E8
:100C1000F386E286D586C486A68687868D85808BF8
:100C20008E85818B8F85828BCF91DF911F910F9164
:100C3000FF90EF90DF90CF90AF908F900895CF937B
:100C4000DF93EC019A01AB01203081EE380780E0A0
:100C5000480780E0580709F448C0E885F98581E035
:100C600090E00A8802C0880F991F0A94E2F78083F7
:100C700060E079E08DE390E00E944526215030400D
:100C8000404050405695479537952795832FEC81E6
:100C9000FD818083EE81FF812083EA85FB85808151
:100CA00021E030E0A9010E8402C0440F551F0A94D0
:100CB000E2F7842B8083EA85FB858081A9010F847C
:100CC00002C0440F551F0A94E2F7842B8083EA8503
:100CD000FB858081088802C0220F331F0A94E2F747
:100CE000822B8083DF91CF910895E885F98510826A
:100CF00020E180E0CCCFFC01A285B3853C9181E06E
:100D000090E0AC01068402C0440F551F0A94E2F73C
:100D1000242F209523232C93A285B3853C91AC01ED
:100D2000078402C0440F551F0A94E2F7242F209530
:100D300023232C93A285B3852C91008802C0880FB1
:100D4000991F0A94E2F7809582238C930895FC0101
:100D500082819381FC01E058FF4F208131818E57C1
:100D60009F4FFC0180819181281B390B2F773070B8
:100D7000C9010895FC0182819381FC01EE57FF4F68
:100D800020813181FC01E058FF4F408151814217A1
:100D9000530739F0820F931FFC01208130E0C90115
:100DA00008952FEF3FEFC9010895DC0112968D9150
:100DB0009C911397FC01EE57FF4F40815181DC015C
:100DC000A058BF4F2D913C9111972417350769F01A
:100DD000840F951FDC012C914F5F5F4F4F77507050
:100DE0005183408330E0C90108952FEF3FEFC901DF
:100DF0000895DC0112968D919C911397FC01E058A7
:100E0000FF4F8E579F4FDC018D919C9111979183DD
:100E100080830895FC01A085B18521898C9190E0A3
:100E2000022E02C0959587950A94E2F780FFF6CFCF
:100E30000484F585E02D6083089585E091E090932A
:100E4000EA028093E90285E692E09093EC028093B7
:100E5000EB0285EC90E09093EE028093ED0284EC3F
:100E600090E09093F0028093EF0280EC90E09093FA
:100E7000F2028093F10281EC90E09093F40280936F
:100E8000F30286EC90E09093F6028093F50284E002
:100E90008093F70283E08093F80287E08093F90261
:100EA00085E08093FA0281E08093FB0208950F931E
:100EB0001F93CF93DF93EC018B01FB0160816623CD
:100EC00069F00F5F1F4FE881F9810190F081E02DFB
:100ED000CE010995F8016081662399F7DF91CF91E2
:100EE0001F910F910895EF92FF920F931F93CF934D
:100EF000DF93EC018B017A014115510581F0F80176
:100F000061918F01E881F9810190F081E02DCE019E
:100F100009950894E108F108E114F10481F7DF91E3
:100F2000CF911F910F91FF90EF900895DC01ED910B
:100F3000FC910280F381E02D09950895CF92DF9214
:100F4000EF92FF920F931F93CF93DF937C018B015E
:100F5000DB0114968D919C9115970097C1F060E08C
:100F600070E0C0E0D0E0D701ED91FC91C080D1806D
:100F7000C8010E94C20D682FC701F601099521968C
:100F8000BE01F80184819581C817D90760F3DF910C
:100F9000CF911F910F91FF90EF90DF90CF90089528
:100FA0002F923F924F925F926F927F928F929F9279
:100FB000AF92BF92CF92DF92EF92FF920F931F9367
:100FC000DF93CF93CDB7DEB7A2970FB6F894DEBF0D
:100FD0000FBECDBF9AA389A37A018B01411551059C
:100FE0006105710509F455C0622E7724882499247F
:100FF000AA24BB2465011E010894211C311C210177
:101000004A0C5B1CC801B701A40193010E9445264C
:10101000F20160830894A11CB11CC11CD11CC80141
:10102000B701A40193010E944526E22EF32E042F5E
:10103000152FE114F1040105110509F7A114B104FC
:10104000C104D10471F10894A108B108C108D10804
:1010500018C0405D50E060E070E089A19AA120E0F6
:1010600030E00E9488080894A108B108C108D1089E
:10107000FFEFAF16FFEFBF06FFEFCF06FFEFDF0674
:1010800081F0F101EA0DFB1D40814A3010F3495C0B
:10109000E1CF40E350E060E070E020E030E00E940B
:1010A0008808A2960FB6F894DEBF0FBECDBFCF91D1
:1010B000DF911F910F91FF90EF90DF90CF90BF9045
:1010C000AF909F908F907F906F905F904F903F90E8
:1010D0002F9008952115310519F00E94D007089529
:1010E000DC01ED91FC910190F081E02D642F0995D8
:1010F00008959A01AB0160E070E00E946A080895CB
:101100009A01462F50E060E070E00E946A0808955E
:10111000EF92FF920F931F93CF93DF93EC017A012D
:101120008B0121153105D9F02A30310549F00E9493
:10113000D007DF91CF911F910F91FF90EF9008950D
:1011400077FD1BC0CE01B801A7012AE00E94D0079D
:10115000DF91CF911F910F91FF90EF900895E8815B
:10116000F9810190F081E02D642F0995DF91CF91F5
:101170001F910F91FF90EF9008954DE250E060E0D5
:1011800070E020E030E00E94880810950095F0940F
:10119000E094E11CF11C011D111DD4CFEF92FF92D0
:1011A0000F931F939A017B010027F7FC0095102FE6
:1011B000B801A7010E9488081F910F91FF90EF903E
:1011C00008959A01462F50E060E070E00E94880880
:1011D0000895CF93DF93EC014DE050E060E070E0C4
:1011E00020E030E00E948808CE014AE050E060E054
:1011F00070E020E030E00E948808DF91CF910895F0
:10120000CF93DF93EC010E946A08CE010E94E908A7
:10121000DF91CF910895CF93DF93EC019A01AB0159
:1012200060E070E00E946A08CE010E94E908DF9148
:10123000CF910895CF93DF93EC019A01462F50E0B0
:1012400060E070E00E946A08CE010E94E908DF9128
:10125000CF910895CF93DF93EC010E949607CE01C2
:101260000E94E908DF91CF910895CF93DF93EC01BD
:101270000E949E07CE010E94E908DF91CF91089558
:10128000CF93DF93EC010E948808CE010E94E90809
:10129000DF91CF910895CF93DF93EC01CB019A01B9
:1012A000AC01662757FD6095762FCE010E94880815
:1012B000CE010E94E908DF91CF910895CF93DF938B
:1012C000EC019A01462F50E060E070E00E9488082F
:1012D000CE010E94E908DF91CF9108959F92AF92CD
:1012E000BF92CF92DF92EF92FF920F931F93CF9313
:1012F000DF93EC016A017B01122FCB01BA0120E0E0
:1013000030E0A9010E94D92288230CF483C0112364
:1013100009F48EC000E050E040E030E02FE3DA0155
:10132000F9016B2F742F8F2F922F20E030E040E2D5
:1013300051E40E94FB21562F472F382F292F0F5F92
:10134000011768F3C701B601DA01F9012B2F3A2F13
:101350004F2F5E2F0E94D6205B01C82E092F7B2DB8
:101360000E94291F962EF72EE82ED92E0E94B9230F
:101370009B01AC016A2D7B2D8C2D902F0E94A52006
:101380005B01C82E092FCE01492D5F2D6E2D7D2DBD
:101390002AE030E00E946A08CE0165E271E00E9416
:1013A00096076A2D7B2D8C2D902F20E030E040E2B7
:1013B00051E40E940321062FB72EA82E992E0E94D9
:1013C00066236B01EE24D7FCE094FE2CCE01B7011E
:1013D000A6012AE030E00E948808C701B6010E94F9
:1013E00009239B01AC01602F7B2D8A2D992D0E9432
:1013F000A5205B01C82E092F115099F6DF91CF91DE
:101400001F910F91FF90EF90DF90CF90BF90AF9022
:101410009F900895CE014DE250E060E070E020E042
:1014200030E00E948808F7FAF094F7F8F0946FCF54
:10143000C701B60120E030E040E05FE30E94D62023
:101440000E94291FAB01BC01CE012AE030E00E94BE
:101450006A08D4CF0E946E090895CF93DF93EC0100
:101460000E946E09CE010E94E908DF91CF91089594
:101470008130C9F0813018F410926E0008958230E6
:1014800009F00895809170008D7F8093700081E055
:101490008093B0008091B100887F84608093B10018
:1014A0001092B300089580916F008D7F80936F003C
:1014B00008951F93182F80913101811749F08FEF04
:1014C0000E94380A812F60E00E94E4031F91089572
:1014D000E4E5F2E084919FEF909331010E94380A95
:1014E000812F60E00E94E4031F9108951F920F92E4
:1014F0000FB60F9211242F933F934F935F936F93E7
:101500007F938F939F93AF93BF93EF93FF938091BC
:101510000A0390910B03A0910C03B0910D03009767
:10152000A105B105D1F1E0910E03F0910F03808187
:10153000909110038927808380910A0390910B0377
:10154000A0910C03B0910D03181619061A061B067C
:101550009CF480910A0390910B03A0910C03B0912D
:101560000D030197A109B10980930A0390930B031E
:10157000A0930C03B0930D03FF91EF91BF91AF9136
:101580009F918F917F916F915F914F913F912F919B
:101590000F900FBE0F901F901895809131010E94FF
:1015A000590AEACF2F923F924F925F926F927F92A9
:1015B0008F929F92AF92BF92CF92DF92EF92FF9263
:1015C0001F93DF93CF9300D000D0CDB7DEB71B01C0
:1015D00049015A01909131018917C9F09F3F09F4DF
:1015E0006DC10F900F900F900F90CF91DF911F91D1
:1015F000FF90EF90DF90CF90BF90AF909F908F9033
:101600007F906F905F904F903F902F900895E4E50A
:10161000F2E0149117FDE5CF61E00E9492031123DF
:1016200009F444C0123009F441C021016624772432
:1016300060E072E18AE790E0A30192010E944526F2
:1016400069017A010894C108D108E108F108E0E0D5
:10165000CE16E0E0DE06E1E0EE06E0E0FE0608F091
:10166000EFC091E0113009F4FCC081149104A10491
:10167000B10409F0A8C08FEF9FEFDC01113009F42D
:10168000B8C0123009F4CCC0112309F0AACFC7BCEE
:101690008093FC029093FD02A093FE02B093FF02A0
:1016A00080916E00826080936E009BCF2101662442
:1016B000772460E072E18AE790E0A30192010E9442
:1016C000452629833A834B835C83C980DA80EB808B
:1016D000FC800894C108D108E108F108FFEFCF169B
:1016E000D104E104F10409F008F495C060E472E467
:1016F0008FE090E0A30192010E94452669017A01E2
:101700000894C108D108E108F108123009F4B0C00A
:1017100082E09FEFC916D104E104F10409F008F456
:101720007BC068E478EE81E090E0A30192010E9422
:10173000452669017A010894C108D108E108F10839
:10174000112309F0AEC083E0FFEFCF16D104E1040E
:10175000F10409F008F460C062E17AE780E090E00B
:10176000A30192010E94452669017A010894C108EB
:10177000D108E108F108112309F41EC186E09FEFAA
:10178000C916D104E104F10409F008F445C0C98088
:10179000DA80EB80FC809AE0F694E794D794C794C3
:1017A0009A95D1F70894C108D108E108F1081123EE
:1017B00009F417C187E08093B10081149104A1045A
:1017C000B10409F458CFB101660F771F80E090E0B3
:1017D000A50194010E94262628EE33E040E050E067
:1017E0000E944526822F932FA42FB52F113009F088
:1017F00048CFD0928900C0928800809303039093D1
:101800000403A0930503B093060380916F008260E8
:1018100080936F00E6CE81E0112369F685BD25CF68
:10182000C092B30080930A0390930B03A0930C0320
:10183000B0930D0380917000826080937000D1CED0
:1018400068E478EE81E090E0A30192010E944526D1
:1018500069017A010894C108D108E108F10893E010
:1018600001CF80918100887F892B80938100FDCEFC
:101870008FEFC816D104E104F10409F008F49AC00E
:1018800060E970ED83E090E0A30192010E9445269B
:1018900069017A010894C108D108E108F10883E0E0
:1018A00038CF123009F08AC0EFEFCE16D104E10430
:1018B000F10411F008F084C084E07DCF8093310101
:1018C000E4E5F2E014911F3F09F48BCE113031F1C1
:1018D000123009F449C0112309F09CCE14BC15BC88
:1018E00094B5926094BD95B5916095BD282F30E078
:1018F000F901E85EFD4FE491F0E0EE0FFF1FEC5FB1
:10190000FD4F459154915093010340930003245D92
:101910003D4FF9012491209302037ECE1092800066
:101920001092810090918100986090938100909135
:101930008100916090938100282F30E0F901E85EEA
:10194000FD4FE491F0E0EE0FFF1FEC5FFD4F45917E
:1019500054915093080340930703245D3D4FF901D0
:1019600024912093090358CE1092B0001092B10038
:101970009091B00092609093B0009091B10091600E
:101980009093B100282F30E0F901E85EFD4FE4911B
:10199000F0E0EE0FFF1FEC5FFD4F45915491509327
:1019A0000F0340930E03245D3D4FF90124912093D2
:1019B000100332CE82E0FFCE84E0E1CE84E0C4CEDC
:1019C00064E274EF80E090E0A30192010E9445265A
:1019D00069017A010894C108D108E108F10885E09D
:1019E000B3CE85E085BD41CE2F923F924F925F925C
:1019F0006F927F928F929F92AF92BF92CF92DF921F
:101A0000EF92FF920F931F93DF93CF93CDB7DEB783
:101A10003B014C0119012A016D897E898F89988DBE
:101A20006A197B098C099D09621A730A840A950A4E
:101A3000A40193010E942626E218F308040915095F
:101A4000A80197010E9467262A0D3B1D4C1D5D1DB4
:101A5000B901CA01CF91DF911F910F91FF90EF90D3
:101A6000DF90CF90BF90AF909F908F907F906F90BE
:101A70005F904F903F902F900895089570E0382F19
:101A800020E0622B732BCB010895EF92FF920F930E
:101A90001F937B018C01611571058105910551F43E
:101AA00020E030E0A901B901CA011F910F91FF9018
:101AB000EF9008950E944B28A80197010E94672685
:101AC000572F482F392F862F952FA42FB32F9C01E6
:101AD000AD01B901CA011F910F91FF90EF900895D8
:101AE000EF92FF920F931F937B018C016217730794
:101AF0008407950764F4CA01B9016E197F09800B48
:101B0000910B0E94450DE60EF71E081F191FB70125
:101B1000C8011F910F91FF90EF900895009709F46D
:101B20000895BC0180E090E00E9450280895DC01F7
:101B3000ED91FC911197E60FF71F80810895FC014C
:101B400080819181009749F0248135816217730764
:101B500020F4680F791FFB0140830895FC01848104
:101B600095816817790740F480819181009721F071
:101B7000680F791FCB0108951092110361E173E0A2
:101B8000CB010895DC01ED91FC911197E60FF71F51
:101B900080810895FC01808191810E942A29089505
:101BA0000F931F93CF93DF93FC01EB014115510578
:101BB000A1F06115710589F0848195818A01015038
:101BC00010408017910770F060817181CE01A801EB
:101BD0000E94A629C00FD11F1882DF91CF911F91BB
:101BE0000F9108958C01F0CF0F931F93CF93DF9344
:101BF000FC01EB0141155105A1F06115710589F05A
:101C0000848195818A01015010408017910770F0FE
:101C100060817181CE01A8010E94A629C00FD11F49
:101C20001882DF91CF911F910F9108958C01F0CF11
:101C3000FC01DB01CA0114964D915C91159724813A
:101C40003581241B350B2817390780F0208131811D
:101C50006D917C91820F931F0E9498299C0180E0D6
:101C60002115310509F0089581E0089580E0089577
:101C7000FC0144815581FB012481358142175307C2
:101C800010F480E0089540E050E00E94180E08959E
:101C9000DF92EF92FF920F931F93CF93DF93EC01AC
:101CA0008C819D814817590758F02FEF3FEFC901EC
:101CB000DF91CF911F910F91FF90EF90DF900895EA
:101CC0008A010F5F1F4FE881F981E00FF11FD0807B
:101CD0001082E880F980C70170E00E94B5299C015C
:101CE0000E0D1F1DF801D0820097F9F288819981AD
:101CF000281B390BDCCFFC014481558141505040F9
:101D00000E94480E0895CF93DF93FC018481958152
:101D10004817590730F02FEF3FEFC901DF91CF91FE
:101D20000895C081D181FB0160817181CE01840F52
:101D3000951F0E94C0299C01009769F32C1B3D0B45
:101D4000ECCF40E050E00E94830E0895CF93DF93E4
:101D5000FC01848195814817590730F02FEF3FEF40
:101D6000C901DF91CF910895C081D181CE01840F47
:101D7000951F70E00E947D299C01009779F32C1B30
:101D80003D0BEECF40E050E00E94A60E0895FC010E
:101D9000DB012481358114968D919C91159728172C
:101DA000390711F080E008956D917C9180819181D7
:101DB0000E9488299C0180E02115310509F00895D1
:101DC00081E00895FC01DB018481958114962D91B9
:101DD0003C9115978217930790F0821B930B2081FB
:101DE00031816D917C91820F931F0E9488299C0103
:101DF00080E02115310509F0089581E0089580E023
:101E00000895FB0160817181FC01808191810E94B4
:101E10008829292F332727FD3095209530952227B3
:101E2000330F221F3327C9010895FB01608171819F
:101E3000FC01808191810E94882940E050E01816C1
:101E4000190614F4CA01089541E050E0CA0108954A
:101E5000FB0160817181FC01808191810E94882950
:101E600040E050E01816190614F441E050E0CA01B1
:101E70000895FB0160817181FC01808191810E9444
:101E80008829292F332727FD30952227330F221F3A
:101E90003327C9010895FC01DB01248135811496A3
:101EA0008D919C9115972817390721F021E030E09A
:101EB000C90108956D917C91808191810E9488294A
:101EC0009C012115310591F7C9010895FC01DB0141
:101ED0002481358114968D919C9115972817390787
:101EE00021F020E030E0C90108956D917C9180815E
:101EF00091810E9488299C0180E090E021153105A4
:101F000019F09C01C901089581E090E09C01FACF8D
:101F1000FB0160817181FC01808191810E9488298F
:101F20000895EF92FF920F931F93CF93DF93EC01ED
:101F30008B01FB01648175818C819D81680F791F04
:101F40007D836C838A819B818617970778F46F5F06
:101F50007F4F888199810E9459280097B1F0998319
:101F600088832C813D813B832A8302C088819981AB
:101F7000F801608171810E947229CE01DF91CF91B9
:101F80001F910F91FF90EF9008958C819D81F80132
:101F900024813581821B930B9D838C83EECF0E941D
:101FA000910F0895EF92FF920F931F93CF93DF93BA
:101FB000EC018B018617970799F0FB01448155814D
:101FC0008C819D818417950798F08881998100976D
:101FD00039F05D834C83F801608171810E94912901
:101FE000CE01DF91CF911F910F91FF90EF90089557
:101FF000888199810E946127F801848195819B8362
:102000008A8301960E94BF2699838883009721F0D6
:10201000F80144815581DDCF1B821A821D821C820A
:10202000DFCF0F931F93DF93CF930F92CDB7DEB720
:102030008C0181E090E0D80115969C938E931497C3
:1020400013969C938E93129782E090E069830E948E
:10205000BF26FC01D80111969C938E93698100974D
:1020600061F06083D801ED91FC91119711820F907E
:10207000CF91DF911F910F91089513961C921E929C
:10208000129715961C921E9214970F90CF91DF9184
:102090001F910F9108950F931F93DF93CF930F928A
:1020A000CDB7DEB78C0181E090E0D80115969C9306
:1020B0008E93149713969C938E93129782E090E0E0
:1020C00069830E94BF26FC01D80111969C938E93D0
:1020D0006981009761F06083D801ED91FC911197BF
:1020E00011820F90CF91DF911F910F910895139658
:1020F0001C921E92129715961C921E9214970F9086
:10210000CF91DF911F910F9108950F931F93DF934C
:10211000CF930F92CDB7DEB78C0181E090E0D8016C
:1021200015969C938E93149713969C938E93129767
:1021300082E090E069830E94BF26FC01D8011196DD
:102140009C938E936981009761F06083D801ED9133
:10215000FC91119711820F90CF91DF911F910F91F8
:10216000089513961C921E92129715961C921E9219
:1021700014970F90CF91DF911F910F9108950F93B6
:102180001F93DF93CF930F92CDB7DEB78C0181E021
:1021900090E0D80115969C938E93149713969C9378
:1021A0008E93129782E090E069830E94BF26FC0123
:1021B000D80111969C938E936981009761F060839A
:1021C000D801ED91FC91119711820F90CF91DF9181
:1021D0001F910F91089513961C921E9212971596B7
:1021E0001C921E9214970F90CF91DF911F910F9127
:1021F00008950F931F93CF93DF93EC018B01FB01A5
:10220000848195819D838C839B838A8301960E9420
:10221000BF2699838883009751F0F801608171810E
:102220000E949129DF91CF911F910F9108951B82F8
:102230001A821D821C82DF91CF911F910F91089508
:102240000F931F93CF93DF93EC018B01FB018481EC
:1022500095819D838C839B838A8301960E94BF26F0
:1022600099838883009751F0F801608171810E9401
:102270009129DF91CF911F910F9108951B821A82AE
:102280001D821C82DF91CF911F910F910895EF92D3
:10229000FF920F931F93DF93CF93CDB7DEB7A19734
:1022A0000FB6F894DEBF0FBECDBF7C01CB01BA01E3
:1022B0008E010F5F1F4FA8012AE030E00E94442AE0
:1022C000F80101900020E9F7CF010197801B910BE5
:1022D000F701958384839383828301960E94BF26AE
:1022E000F70191838083009781F0B8010E949129C2
:1022F000A1960FB6F894DEBF0FBECDBFCF91DF9190
:102300001F910F91FF90EF90089513821282158212
:102310001482EECFEF92FF920F931F93DF93CF9330
:10232000CDB7DEB7A1970FB6F894DEBF0FBECDBF15
:102330007C01CB01BA018E010F5F1F4FA8012AE07B
:1023400030E00E94442AF80101900020E9F7CF0113
:102350000197801B910BF70195838483938382837C
:1023600001960E94BF26F70191838083009781F038
:10237000B8010E949129A1960FB6F894DEBF0FBE56
:10238000CDBFCF91DF911F910F91FF90EF900895F6
:102390001382128215821482EECFEF92FF920F9376
:1023A0001F93DF93CF93CDB7DEB7A1970FB6F89405
:1023B000DEBF0FBECDBF7C019A0180E090E08E01B0
:1023C0000F5F1F4FA8010E94442AF80101900020CE
:1023D000E9F7CF010197801B910BF7019583848367
:1023E0009383828301960E94BF26F70191838083A5
:1023F000009781F0B8010E949129A1960FB6F89438
:10240000DEBF0FBECDBFCF91DF911F910F91FF9027
:10241000EF9008951382128215821482EECFEF920C
:10242000FF920F931F93DF93CF93CDB7DEB7A197A2
:102430000FB6F894DEBF0FBECDBF7C019A0180E0DD
:1024400090E08E010F5F1F4FA8010E94442AF801FF
:1024500001900020E9F7CF010197801B910BF70154
:10246000958384839383828301960E94BF26F7011C
:1024700091838083009781F0B8010E949129A196F1
:102480000FB6F894DEBF0FBECDBFCF91DF911F9185
:102490000F91FF90EF90089513821282158214829B
:1024A000EECF0F931F93CF93DF93EC018B01611558
:1024B000710521F1FB0101900020E9F73197E61B3E
:1024C000F70BCF010196FD83EC83FB83EA830E9427
:1024D000BF2699838883009741F0B8010E94912913
:1024E000DF91CF911F910F9108951B821A821D8257
:1024F0001C82DF91CF911F910F91089581E090E0B0
:10250000E0E0F0E002E311E0DECFAF92BF92CF92C5
:10251000DF92EF92FF920F931F93CF93DF937C0193
:102520008B01C82EE6016E01DF2CE601FB01608104
:102530007181C6010E945112F80184819581009732
:10254000B1F0AA24BB24C880D980CA0CDB1CF601D8
:10255000808190E00E946129F60180830894A11C8B
:10256000B11CF80184819581A816B90660F3C701F2
:10257000DF91CF911F910F91FF90EF90DF90CF905F
:10258000BF90AF900895AF92BF92CF92DF92EF923B
:10259000FF920F931F93CF93DF937C018B01C82E83
:1025A000E6016E01DF2CE601FB0160817181C6014D
:1025B0000E945112F801848195810097B1F0AA24FC
:1025C000BB24C880D980CA0CDB1CF601808190E056
:1025D0000E945929F60180830894A11CB11CF801BE
:1025E00084819581A816B90660F3C701DF91CF9168
:1025F0001F910F91FF90EF90DF90CF90BF90AF9021
:102600000895EF92FF920F931F93DF93CF93CDB76F
:10261000DEB72D970FB6F894DEBF0FBECDBFFC011D
:102620008B0186179707E9F124813581DB01149628
:102630008D919C9115972817390779F020E0822F0A
:102640002D960FB6F894DEBF0FBECDBFCF91DF91B0
:102650001F910F91FF90EF900895CE010196BF0159
:102660000E94C312E980FA80CE010796B8010E9449
:10267000C3120F811885C701B8010E94882920E084
:10268000009709F421E0C8012D870E9461271A866E
:1026900019861C861B8689819A810E9461272D8557
:1026A000CECF21E0CCCFDF92EF92FF920F931F931A
:1026B000CF93DF938C01EB0179012417350730F4B8
:1026C000342F252FA701C901E92EF82E8C819D8179
:1026D0008E159F0508F47C01E881F981EE0DFF1D40
:1026E000D080108268817981640F751FC8010E94B3
:1026F0005112E881F981EE0DFF1DD082C801DF91F2
:10270000CF911F910F91FF90EF90DF900895CF939D
:10271000DF93EC01FB01248135810E945313CE012C
:10272000DF91CF9108958F929F92AF92BF92CF92F7
:10273000DF92EF92FF920F931F93DF93CF9300D01E
:1027400000D000D0CDB7DEB76C017B01DB01149661
:102750008D919C9115970097B1F40FEF1FEFC80171
:1027600026960FB6F894DEBF0FBECDBFCF91DF9196
:102770001F910F91FF90EF90DF90CF90BF90AF909F
:102780009F908F90089501974817590730F3F601ED
:10279000848195814817590700F7ED91FC911197B5
:1027A00090808A015E010894A11CB11C02C00150F6
:1027B000104017FDD2CFD601ED91FC911197E00F9B
:1027C000F11F8081891599F7F70124813581200F48
:1027D000311FC501B601A8010E945313C501B701FD
:1027E0000E94C70E882E89819A810E9461278820C5
:1027F00009F0B5CF1C821B821E821D82D8CFFC013E
:1028000044815581FB0124813581421B530B0E9479
:10281000931308956F927F928F929F92AF92BF927F
:10282000CF92DF92EF92FF920F931F93DF93CF939C
:1028300000D000D000D0CDB7DEB78C016B01FB011A
:10284000608171816115710509F463C05E010894AE
:10285000A11CB11CC5010E945112F6018480958013
:102860008114910409F459C0F60160807180EE244E
:10287000FF2406C00894E11CF11CE814F90448F494
:10288000F301EE0DFF1D808190E00E945129009719
:1028900089F78D809E80089481089108E814F904D6
:1028A000B0F4F601C080D180C80CD91C09C00894CE
:1028B000810891080894C108D108E814F90438F493
:1028C000F601808190E00E945129009781F79401E0
:1028D0002F5F3F4FC801B501A7010E9453138981A3
:1028E0009A810E946127C80126960FB6F894DEBF30
:1028F0000FBECDBFCF91DF911F910F91FF90EF9051
:10290000DF90CF90BF90AF909F908F907F906F900F
:102910000895B6010E94F910E6CFEE24FF24B9CF46
:102920002F923F924F925F926F927F928F929F92DF
:10293000AF92BF92CF92DF92EF92FF920F931F93CD
:10294000DF93CF93CDB7DEB768970FB6F894DEBFAD
:102950000FBECDBF1C01FB015A01290160817181AD
:102960006115710509F47EC08E010F5F1F4FC8010C
:102970000E94511247E0C42ED12CCC0EDD1EC601A0
:1029800062E371E00E9451123DE0832E912C8C0E87
:102990009D1E23E1622E712C6C0E7D1E2CC0C40185
:1029A000B80140E050E097010E945313C601B40102
:1029B0000E94910F8D859E850E946127188A1F862F
:1029C0001A8A198AC601B2010E94910FF501448149
:1029D00055814E0D5F1DC301B8010E948713C801C8
:1029E000B3010E94D20F8B899C890E9461271E8AA5
:1029F0001D8A188E1F8AC801B5010E94A10E7C0194
:102A0000FFEF8F3F9F0759F6C601B8010E94910F53
:102A1000C101B6010E94F9108F8198850E9461273B
:102A20001A8619861C861B8689819A810E946127D5
:102A3000C10168960FB6F894DEBF0FBECDBFCF912F
:102A4000DF911F910F91FF90EF90DF90CF90BF909B
:102A5000AF909F908F907F906F905F904F903F903E
:102A60002F900895BF010E94F910E2CFCF92DF921C
:102A7000EF92FF920F931F93DF93CF9300D000D07C
:102A800000D0CDB7DEB78C01FB01F42EE22E6081C1
:102A900071816115710551F16E010894C11CD11C41
:102AA000C6010E94511289819A8101C0E0826F2D76
:102AB00070E00E947D29FC010097C1F7C801B601B2
:102AC0000E94F91089819A810E946127C801269687
:102AD0000FB6F894DEBF0FBECDBFCF91DF911F912F
:102AE0000F91FF90EF90DF90CF900895BF010E946B
:102AF000F910ECCF0F931F93CF93DF93EC018B0171
:102B00006115710521F1FB0101900020E9F7319772
:102B1000E61BF70BCF010196FD83EC83FB83EA8371
:102B20000E94BF2699838883009741F0B8010E94D4
:102B30009129DF91CF911F910F9108951B821A82E5
:102B40001D821C82DF91CF911F910F91089581E02A
:102B500090E0E0E0F0E002E311E0DECFEF92FF92E0
:102B60000F931F93DF93CF93CDB7DEB7A1970FB627
:102B7000F894DEBF0FBECDBF7C01CB01BA018E0140
:102B80000F5F1F4FA8010E94FB29F8010190002050
:102B9000E9F7CF010197801B910BF701958384839F
:102BA0009383828301960E94BF26F70191838083DD
:102BB000009781F0B8010E949129A1960FB6F89470
:102BC000DEBF0FBECDBFCF91DF911F910F91FF9060
:102BD000EF9008951382128215821482EECFEF9245
:102BE000FF920F931F93DF93CF93CDB7DEB7A197DB
:102BF0000FB6F894DEBF0FBECDBF7C01CB01BA018A
:102C00008E010F5F1F4FA8010E94FB29F801019060
:102C10000020E9F7CF010197801B910BF701958305
:102C200084839383828301960E94BF26F701918358
:102C30008083009781F0B8010E949129A1960FB678
:102C4000F894DEBF0FBECDBFCF91DF911F910F91E2
:102C5000FF90EF9008951382128215821482EECFB6
:102C6000EF92FF920F931F93DF93CF93CDB7DEB711
:102C7000A1970FB6F894DEBF0FBECDBF7C01CB018C
:102C80008E010F5F1F4FB8010E94DA29F8010190F1
:102C90000020E9F7CF010197801B910BF701958385
:102CA00084839383828301960E94BF26F7019183D8
:102CB0008083009781F0B8010E949129A1960FB6F8
:102CC000F894DEBF0FBECDBFCF91DF911F910F9162
:102CD000FF90EF9008951382128215821482EECF36
:102CE000EF92FF920F931F93DF93CF93CDB7DEB791
:102CF000A1970FB6F894DEBF0FBECDBF7C01CB010C
:102D00008E010F5F1F4FB8010E94DA29F801019070
:102D10000020E9F7CF010197801B910BF701958304
:102D200084839383828301960E94BF26F701918357
:102D30008083009781F0B8010E949129A1960FB677
:102D4000F894DEBF0FBECDBFCF91DF911F910F91E1
:102D5000FF90EF9008951382128215821482EECFB5
:102D6000089520E030E0FC018081882311F421E007
:102D700030E0C901089521E0FC0120830895089501
:102D80000E94612708950E94BF260895089508951E
:102D900081E080935703609334031092550310929F
:102DA0005603089581E08093570360933403109293
:102DB0005503109256030895809133039091320386
:102DC000891B08959091320380913303981748F43A
:102DD000E92FF0E0EE5EFC4F80819F5F909332031D
:102DE000089580E00895CF93DF939C01E0915A030A
:102DF000F0915B03309711F190913203809133038E
:102E00009817E0F0161617069CF4A0E0B0E090E0EA
:102E100040E050E0AE5EBC4F420F531FEA014881D4
:102E20004C939F5F492F50E0DA014617570794F300
:102E30001092320360933303CB010995DF91CF9158
:102E40000895E0915803F0915903309729F01092BA
:102E50005503109256030995089570935B03609390
:102E60005A03089570935903609358030895DF93AC
:102E7000CF930F92CDB7DEB7698380915703882334
:102E8000C1F080915603803220F00F90CF91DF91F6
:102E9000089580915503E82FF0E0EB5CFC4F6083D0
:102EA0008F5F80935503809356030F90CF91DF91EE
:102EB0000895CE01019661E00E94BE1D0F90CF9152
:102EC000DF9108950E9437170895EF92FF920F93B4
:102ED0001F93CF93DF93EC01162F042F809157039C
:102EE0008823A9F0442361F0E62EF72ECE01F701E6
:102EF00061917F010E9437178E2D811B8017B0F3DF
:102F0000DF91CF911F910F91FF90EF900895862F41
:102F1000972F642F0E94BE1DDF91CF911F910F91BB
:102F2000FF90EF900895DB010D900020E9F7AD01CF
:102F300041505040461B570B0E94651708958091E1
:102F4000340365E373E04091560321E00E946E1D57
:102F50001092550310925603109257030895862F2E
:102F6000413208F040E262E173E00E94351D1092A8
:102F700032038093330308950E94AF17089510928F
:102F800032031092330310925503109256030E949D
:102F90001E1D0895CF93DF93EC01862F0E94311DF3
:102FA00081E297E10E94E11D83EF96E10E94DC1D22
:102FB000CE010E94BF17DF91CF9108950E94CA17DA
:102FC0000895CB01642F0E94712A0895CB010E94BD
:102FD000692A089508950895FC018081823071F076
:102FE000833028F0833069F0843031F008958130E7
:102FF000E9F76093B300089568BD08956093B40045
:10300000089567BD0895CF93DF93EC01888199817E
:10301000689F9001699F300D789F300D112440E02A
:1030200050E060E077E883E993E00E9445262B8337
:103030003C834D835E831F82188619861A86DF9132
:10304000CF9108950895CF93DF938CE060E00E94C4
:10305000E40388E060E00E94E403C7E0D0E00DC034
:1030600088E061E00E94E40384E061E00E94E40300
:1030700021973FEFCF3FD307A1F084E060E00E94AB
:10308000E40380915D0390E00C2E02C09595879536
:103090000A94E2F780FDE4CF88E060E00E94E40358
:1030A000E3CF8CE061E00E94E403DF91CF910895CB
:1030B000DF92EF92FF920F931F93CF93DF93EC0178
:1030C0008A81813009F471C0823049F080E0DF915B
:1030D000CF911F910F91FF90EF90DF9008952EE117
:1030E00091E2D92E30E450E8E1E0F0E2413001F124
:1030F000423009F495C0433009F4A2C09B854430A6
:1031000021F5613009F4F3C091509B879F739B8731
:10311000903108F099C0092F10E063E471E0601B62
:10312000710BDB017C910D5C1E4FD8016C910FC0BF
:103130009B85792F76957695769570FF9BC061304B
:1031400009F4DCC098509B879B857FEF6FEF9F73DE
:103150009B87813009F45FC0823009F46EC0809192
:103160005D03822380935D03443091F1969596959B
:103170009695943009F4AFC09530F8F0963009F484
:10318000AEC0963008F087C0352B382B30935D03E6
:103190008CE593E00E9423188B85DF91CF911F91DE
:1031A0000F91FF90EF90DF90089521EE36E0D32E3F
:1031B00030E158E0E2E0F4E099CF923009F493C0B6
:1031C000933008F462C05E2B582B50935D03E0CF20
:1031D000903118F48D2980935D03892F80518031BF
:1031E00030F4E52B20915D032E2B20935D03892F76
:1031F0008052803130F4532B20915D03252B209396
:103200005D039053903120F63F2B90915D03932BFB
:1032100090935D03BDCF7093B3006093B4009FCFD4
:103220009B85792F76957695769570FD29C06130CE
:1032300009F447C098509B8788CF77BD68BD8FCF72
:103240006130F1F19B85F6CF692F6051603150F10B
:10325000692F6052603108F055C0092F10E063E615
:1032600071E0601B710BDB017C910D5E1E4FD8017C
:103270006C916DCF6130F1F190519B879B8565CF4B
:10328000613011F190519B8760CF913001F18F2B0C
:1032900080935D037DCF9730D1F73F2B382B309350
:1032A0005D0376CFE92EFF24B7016D5D7E4FDB0114
:1032B0007C9103E511E00E191F09D8016C9147CFED
:1032C0009B85985F9B8741CF905F9B873ECF8D29E1
:1032D00080935D035DCF852B80935D0359CF832B56
:1032E00080935D0355CF8E2B80935D0351CF9F5FFD
:1032F0009B870CCF905F9B879B8527CF985F9B8791
:103300009B8523CF692F6053603118F070E060E037
:103310001ECFE92EFF24B7016D5F7E4FDB017C914C
:1033200003E711E00E191F09D8016C9110CF5F92CD
:103330006F927F928F929F92AF92BF92CF92DF92C5
:10334000EF92FF920F931F93CF93DF93EC018B01CA
:10335000542EF22E8B809C80AD80BE8023E0F2162E
:1033600009F4A5C084E0F81609F4A6C0C501B401AB
:1033700028EE33E040E050E00E944526722EC32E36
:10338000D42EE52EC501B40128EE33E040E050E034
:103390000E9445264B015C01662402C0015010408A
:1033A0000115110599F1CE01652D4F2D0E94581878
:1033B000682E672D7C2D8D2D9E2D0E9489028F8178
:1033C0009885A985BA85880D991DAA1DBB1D8F8377
:1033D0009887A987BA87883E23E0920720E0A20752
:1033E00020E0B207D8F261E070E080E090E00E9457
:1033F00089028F819885A985BA85885E9340A0400F
:10340000B0408F839887A987BA87C8CF84E0F81621
:1034100081F0DF91CF911F910F91FF90EF90DF909E
:10342000CF90BF90AF909F908F907F906F905F9064
:103430000895662071F320E1621619F4EACF003195
:1034400041F3CE01652D44E00E945818082F672DE6
:103450007C2D8D2D9E2D0E9489028F819885A985B6
:10346000BA85880D991DAA1DBB1D8F839887A987D2
:10347000BA87883E23E0920720E0A20720E0B20747
:1034800090F061E070E080E090E00E9489028F811E
:103490009885A985BA85885E9340A040B0408F8307
:1034A0009887A987BA87002309F4B3CFC8CFB69409
:1034B000A794979487945ACF54E0B694A79497947E
:1034C00087945A95D1F702951295107F1027007FA7
:1034D00010274CCFFC018281813069F0823009F0E5
:1034E000089580915D038E7180935D038CE593E078
:1034F0000E942318089580915D03817E80935D036F
:103500008CE593E00E9423180895FC0180818230AD
:1035100009F46AC0833030F0833009F462C084302B
:1035200039F108958130E9F783E092E0623021F1CA
:10353000643009F43BC06130A1F721E030E0A9011B
:1035400002C0440F551F8A95E2F7842F8095A90188
:1035500002C0440F551F9A95E2F720915D03242B7A
:10356000822380935D038CE593E00E9423180895E5
:1035700086E090E06230E1F621E030E0A90102C08F
:10358000440F551F9A95E2F7942F909540915D0353
:10359000942302C0220F331F8A95E2F7922B909357
:1035A0005D038CE593E00E942318089521E030E04C
:1035B000A90102C0440F551F9A95E2F7B90102C054
:1035C000660F771F8A95E2F7CB01842B80952091B7
:1035D0005D03282320935D038CE593E00E9423186C
:1035E000089587E095E0A2CF84E091E09FCFCF934C
:1035F000DF93EC018CE061E00E94920387E061E0E0
:103600000E94920388E061E00E94920384E061E0FE
:103610000E94920310925D03CE010E94231887E05E
:1036200060E00E94E403DF91CF910895EF92FF9252
:103630001F93CF93DF93EC017B01142F8CE593E074
:103640000E94F71AF982E8821A831B861130D1F1A1
:10365000123031F0DF91CF911F91FF90EF900895DC
:1036600080915D038E7180935D038CE593E00E94F1
:10367000231885E061E00E94920386E061E00E94E9
:10368000920385E061E00E94E40386E061E00E942D
:10369000E40384B5836884BD17BC86E061E00E94C2
:1036A000920384B5836284BD18BC85E061E00E940A
:1036B00092038FEF87BD88BDDF91CF911F91FF905F
:1036C000EF90089580915D03817E80935D038CE58A
:1036D00093E00E9423188BE061E00E94920383E054
:1036E00061E00E9492038BE061E00E94E40383E0CA
:1036F00061E00E94E4038091B00083688093B00091
:103700001093B1001092B3008BE061E00E9492032D
:103710008091B00083628093B0001093B10010924A
:10372000B40083E061E00E9492038FEF8093B300C6
:103730008093B4008FCF1F93DF93CF930F92CDB7B9
:10374000DEB7FC01142F608341838CE593E069832D
:103750000E94F71A6981623009F450C06330F0F4B6
:103760006130B9F480915D03837F80935D038CE5C4
:1037700093E00E9423188091B00083688093B0008A
:1037800017701093B1001092B3008BE061E00E94BB
:1037900092030F90CF91DF911F9108956330C1F094
:1037A0006430B9F780915D038E7B80935D038CE577
:1037B00093E00E94231884B5836284BD18BC85E021
:1037C00061E00E9492030F90CF91DF911F910895C5
:1037D00080915D038F7580935D038CE593E00E947B
:1037E000231884B5836884BD17BC86E061E00E941D
:1037F00092030F90CF91DF911F91089580915D0307
:103800008D7E80935D038CE593E00E942318809168
:10381000B00083628093B00017701093B1001092D3
:10382000B40083E061E00E9492030F90CF91DF919A
:103830001F9108951F93DF93CF930F92CDB7DEB7FB
:10384000FC01142F608341838CE593E069830E941F
:10385000F71A6981623009F450C06330F0F46130C6
:10386000B9F480915D03837F80935D038CE593E0E1
:103870000E9423188091B00083688093B000177075
:103880001093B1001092B3008BE061E00E949203AC
:103890000F90CF91DF911F9108956330C1F0643094
:1038A000B9F780915D038E7B80935D038CE593E097
:1038B0000E94231884B5836284BD18BC85E061E052
:1038C0000E9492030F90CF91DF911F9108958091F4
:1038D0005D038F7580935D038CE593E00E94231850
:1038E00084B5836884BD17BC86E061E00E949203C2
:1038F0000F90CF91DF911F91089580915D038D7E90
:1039000080935D038CE593E00E9423188091B000C2
:1039100083628093B00017701093B1001092B400CE
:1039200083E061E00E9492030F90CF91DF911F919D
:103930000895EF92FF921F93CF93DF93EC017B01E9
:10394000142F8CE593E00E94F71AF982E8821A831B
:103950001B861130D1F1123031F0DF91CF911F91E0
:10396000FF90EF90089580915D038E7180935D03C9
:103970008CE593E00E94231885E061E00E949203A9
:1039800086E061E00E94920385E061E00E94E4032A
:1039900086E061E00E94E40384B5836884BD17BCBF
:1039A00086E061E00E94920384B5836284BD18BC06
:1039B00085E061E00E9492038FEF87BD88BDDF91B3
:1039C000CF911F91FF90EF90089580915D03817ECC
:1039D00080935D038CE593E00E9423188BE061E007
:1039E0000E94920383E061E00E9492038BE061E019
:1039F0000E94E40383E061E00E94E4038091B00050
:103A000083688093B0001093B1001092B3008BE0F4
:103A100061E00E9492038091B00083628093B000C5
:103A20001093B1001092B40083E061E00E94920311
:103A30008FEF8093B3008093B4008FCF10928203F6
:103A4000449A459AE9EBF0E080818E7F8083808103
:103A50008D7F808388E48093B80085E48093BC00E8
:103A60000895880F8093BA0008954132A0F590918F
:103A700082039923E1F791E0909382039FEF909363
:103A8000810310925F03942F915090936003880FED
:103A9000816080935E0385EE8093BC0080918203F9
:103AA0008130E1F380915F03841790F0442371F03B
:103AB00020E030E0FB01E20FF31FD901AF59BC4F0A
:103AC0009C9190832F5F3F4F2417A0F3842F08957C
:103AD00040915F03EBCF40E0842F0895CF93DF93B5
:103AE000413208F043C0909182039923E1F792E0BC
:103AF000909382039FEF9093810310925F03409312
:103B00006003442369F0E0E0F0E0DF01AF59BC4F0F
:103B1000EB01CE0FDF1F98819C933196E417A8F339
:103B200090E0880F991F80935E0385EE8093BC0020
:103B3000222381F4809181038F3FA1F08091810342
:103B40008032C1F0809181038033B1F084E0DF9155
:103B5000CF910895809182038230E1F380918103B7
:103B60008F3F61F780E0DF91CF91089581E0DF9191
:103B7000CF91089582E0EBCF83E0E9CF6132D0F4BA
:103B800020918203243011F082E008956093A7030E
:103B9000662371F020E030E0F901E655FC4FDC01CE
:103BA000A20FB31F4C9140832F5F3F4F2617A0F306
:103BB00080E0089581E008959093A5038093A40385
:103BC00008959093A9038093A8030895882321F46E
:103BD00085E88093BC00089585EC8093BC0008952F
:103BE00085ED8093BC008091BC0084FDFCCF1092D9
:103BF0008203089585EC8093BC001092820308959F
:103C00001F920F920FB60F9211242F933F934F9351
:103C10005F936F937F938F939F93AF93BF93EF9334
:103C2000FF938091B90090E0A0E0B0E0887F9070B1
:103C3000A070B070893C910598F58C5C9F4FFC0199
:103C4000EE0FFF1F0590F491E02D099484E080931E
:103C500082031092A6031092A703E091A803F091AB
:103C6000A90309958091A703882329F481E0809313
:103C7000A7031092AA038091A603E82FF0E0E6556F
:103C8000FC4F90819093BB008F5F8093A60390912F
:103C9000A6038091A7039817C8F485EC8093BC0015
:103CA000FF91EF91BF91AF919F918F917F916F9114
:103CB0005F914F913F912F910F900FBE0F901F90EA
:103CC000189580918303803208F49CC085E8809326
:103CD000BC00E6CF80915F039091BB00E82FF0E03D
:103CE000EF59FC4F90838F5F80935F0390915F0348
:103CF00080916003981750F7D0CF80915F03909127
:103D0000BB00E82FF0E0EF59FC4F90838F5F80936A
:103D10005F0385ED8093BC008091BC0084FDFCCFE7
:103D200010928203BDCF85EC8093BC001092820379
:103D3000B7CF83E0809382031092830385EC809356
:103D4000BC00AECF1092810385ED8093BC008091C2
:103D5000BC0084FDFCCFE4CF80915E038093BB0068
:103D600085EC8093BC009CCF90915F0380916003B1
:103D7000981708F45EC085ED8093BC008091BC006C
:103D800084FDFCCFCDCF80E28093810385ED8093CD
:103D9000BC008091BC0084FDFCCFC2CF8091830326
:103DA000803208F43FC085ED8093BC008091BC0058
:103DB00084FDFCCF1092820360918303E091A40301
:103DC000F091A50384E893E070E0099510928303D5
:103DD00085EC8093BC001092820362CF80E38093D5
:103DE000810385ED8093BC008091BC0084FDFCCFF5
:103DF00097CF88E38093810385EC8093BC00109279
:103E000082034ECF809183039091BB00E82FF0E0B6
:103E1000EC57FC4F90838F5F8093830385EC8093F6
:103E2000BC003ECFE0918303F0E0EC57FC4F1082E2
:103E3000BACF80915F03E82FF0E0EF59FC4F9081FB
:103E40009093BB008F5F80935F0385EC8093BC00F1
:103E500027CFEF92FF920F931F937B018C0120E0FD
:103E600030E040E05FE40E94A92288238CF0C80182
:103E7000B70120E030E040E05FE40E94A5200E940E
:103E800066239B01AC01205030404040504806C0A2
:103E9000C801B7010E9466239B01AC01B901CA01A8
:103EA0001F910F91FF90EF900895A0E0B0E0EBE537
:103EB000FFE10C948426FC012B01EA018081823011
:103EC00008F43DC1DB019C91923008F437C1843085
:103ED00069F4943009F033C1918111968C91119756
:103EE000981709F42CC1E4E4F1E029C1943009F4F5
:103EF00025C19230A9F4823009F021C19F0188E0E8
:103F0000D9010D909D01DA010D92AD018150C1F7EB
:103F1000D20111968C9111979181892389830CC1CB
:103F2000823009F40BC182819381DB0112964D919D
:103F30005C911397E480F580068117811496AD900B
:103F4000BD90CD90DC9017979C01241B350BB901D7
:103F500037FF04C066277727621B730B6032710539
:103F60000CF062C0121613066CF535014601062EE0
:103F700004C096948794779467940A94D2F721E0CA
:103F800030E040E050E004C0220F331F441F551FB3
:103F90006A95D2F721503040404050402A213B21C1
:103FA0004C215D21211531054105510521F021E00C
:103FB00030E040E050E059016A01A628B728C8283F
:103FC000D9283DC021153105D1F1860F971F370142
:103FD0004801062E04C096948794779467940A94B7
:103FE000D2F721E030E040E050E004C0220F331F60
:103FF000441F551F6A95D2F7215030404040504031
:104000002E213F2140235123211531054105510522
:1040100021F021E030E040E050E079018A01E6281B
:10402000F728082919290BC0481759072CF0CA018D
:10403000EE24FF24870103C0AA24BB24650121814B
:10404000F2013181231709F44AC0222349F0A60165
:1040500095012E193F09400B510B79018A0104C0CB
:10406000EA18FB080C091D0917FD0CC019829B8377
:104070008A83EC82FD820E831F838C819D81AE81B9
:10408000BF811AC021E029839B838A8388279927CF
:10409000DC018E199F09A00BB10B8C839D83AE832D
:1040A000BF83EBCF880F991FAA1FBB1F2A813B81BB
:1040B000215030403B832A839C01AD012150304088
:1040C000404050402F3F6FEF36076FEF46076FE3DA
:1040D000560740F38C839D83AE83BF830BC0298337
:1040E0009B838A83EA0CFB1C0C1D1D1DEC82FD8248
:1040F0000E831F8383E088832C813D814E815F8105
:1041000057FF1AC0C901AA2797FDA095BA2F817041
:104110009070A070B0705695479537952795822B73
:10412000932BA42BB52B8C839D83AE83BF838A8175
:104130009B8101969B838A83FE0101C0F201CF011E
:10414000CDB7DEB7E0E10C94A026A0E2B0E0EBEA48
:10415000F0E20C948E2669837A838B839C832D8373
:104160003E834F835887E9E0EE2EF12CEC0EFD1EC6
:10417000CE010196B7010E9458258E010F5E1F4F98
:10418000CE010596B8010E9458258A8991E08927B9
:104190008A8BC701B801AE01475E5F4F0E94551F71
:1041A0000E948924A096E6E00C94AA26A0E2B0E042
:1041B000ECEDF0E20C948E2669837A838B839C83EA
:1041C0002D833E834F835887F9E0EF2EF12CEC0EC0
:1041D000FD1ECE010196B7010E9458258E010F5E8B
:1041E0001F4FCE010596B8010E945825C701B8019E
:1041F000AE01475E5F4F0E94551F0E948924A09622
:10420000E6E00C94AA26A0E2B0E0E9E0F1E20C942A
:10421000822669837A838B839C832D833E834F839D
:104220005887CE010196BE01675F7F4F0E945825D7
:10423000CE010596BE016F5E7F4F0E94582599857D
:10424000923088F089898230C8F0943019F4823035
:1042500051F404C0843029F4923081F484E491E074
:10426000C4C0923049F480E02A859A89291381E0FC
:104270008A87CE010996B9C0823049F480E02A8548
:104280009A89291381E08A8BCE014196AEC06D8454
:104290007E848F849888AD88BE88CF88D88C60E073
:1042A00070E080E090E0DC01EE24FF24870120E054
:1042B00030E0A901F301E170F0703097C9F02A0DE8
:1042C0003B1D4C1D5D1D8E0D9F1DA01FB11F222487
:1042D000332421012A153B054C055D0528F4E1E056
:1042E0002E2E312C412C512C820D931DA41DB51D59
:1042F000EE0CFF1C001F111FD7FE09C0E1E02E2E9F
:10430000312C412C512CE228F328042915296F5F08
:104310007F4F6032710549F0AA0CBB1CCC1CDD1C20
:104320009694879477946794C5CF6B897C89EB8545
:10433000FC856E0F7F1F6E5F7F4F7C8F6B8F1A8E99
:104340007A856A89761711F061E06A8F6B8D7C8DB2
:1043500010C0FC01E170F070309729F05695479538
:10436000379527955068B695A795979587956F5F70
:104370007F4FB7FDEECF0CC0880F991FAA1FBB1F40
:1043800057FD8160220F331F441F551F615070403D
:104390008030E0E09E07E0E0AE07E0E4BE0760F3B7
:1043A0006B8F7C8F6FE7E62EF12C012D112DE8220B
:1043B000F9220A231B2360E4E616F1040105110526
:1043C00061F487FD0AC0211531054105510529F029
:1043D000805C9F4FAF4FBF4F80788D8F9E8FAF8F88
:1043E000B8A383E0898FCE0149960E948924A096C4
:1043F000E2E10C949E26A8E1B0E0E1E0F2E20C9448
:104400008A2669837A838B839C832D833E834F83A3
:1044100058878E01075F1F4FCE010196B8010E9499
:10442000582581E1E82EF12CEC0EFD1ECE010596FB
:10443000B7010E9458259985923008F483C0898974
:10444000823010F487017EC02A853A8923272A8783
:10445000943011F0923031F4981709F070C004E4F0
:1044600011E070C0843039F41D861E861F86188ABC
:104470001C861B8667C0823019F484E0898762C07D
:104480008B859C852B893C89821B930B9C878B8712
:104490002D853E854F855889AD88BE88CF88D88CBC
:1044A0002A153B054C055D0538F4220F331F441FC8
:1044B000551F01979C878B8760E070E0E12CF12C01
:1044C000012DA0E41A2F80E090E0DC012A153B05C5
:1044D0004C055D0540F08E299F29A02BB12B2A1990
:1044E0003B094C095D0916950795F794E794220F4F
:1044F000331F441F551F6F5F7F4F6F31710531F7B9
:104500006FE7E62EF12C012D112DE822F9220A2366
:104510001B2360E4E616F1040105110561F487FD33
:104520000AC0211531054105510529F0805C9F4FD6
:10453000AF4FBF4F80788D879E87AF87B88B8E0136
:10454000075F1F4FC8010E9489246896EAE00C9417
:10455000A626A8E1B0E0EFEAF2E20C948E26698389
:104560007A838B839C832D833E834F83588789E096
:10457000E82EF12CEC0EFD1ECE010196B7010E9433
:1045800058258E010F5E1F4FCE010596B8010E947F
:1045900058258985823040F08989823028F0C7010A
:1045A000B8010E94C72501C08FEF6896E6E00C9421
:1045B000AA26A8E1B0E0EFEDF2E20C948E26698322
:1045C0007A838B839C832D833E834F83588789E036
:1045D000E82EF12CEC0EFD1ECE010196B7010E94D3
:1045E00058258E010F5E1F4FCE010596B8010E941F
:1045F00058258985823040F08989823028F0C701AA
:10460000B8010E94C72501C081E06896E6E00C94DD
:10461000AA26A8E0B0E0EFE0F3E20C948C2623E0B9
:1046200029839B01AC01222757FD2395332744277B
:1046300055272A83611571058105910519F482E0DA
:1046400089833CC02223A9F0603020E0720720E07B
:10465000820720E8920729F460E070E080E09FEC98
:1046600031C0EE24FF248701E61AF70A080B190B64
:1046700002C07B018C018EE1C82ED12CDC82CB8262
:10468000ED82FE820F831887C801B7010E94312492
:104690009C01215030401216130684F4022E04C0EF
:1046A000EE0CFF1C001F111F0A94D2F7ED82FE8250
:1046B0000F831887C21AD30ADC82CB82CE010196FF
:1046C0000E9489242896E8E00C94A826ACE0B0E08B
:1046D000ECE6F3E20C94922669837A838B839C83C5
:1046E000CE010196BE016B5F7F4F0E9458258D81E0
:1046F000823061F1823050F1843021F48E81882340
:1047000049F12DC02F81388537FD20C06E812F31B2
:1047100031051CF06623F1F022C08EE190E0821B8F
:10472000930B29853A854B855C8504C05695479542
:10473000379527958A95D2F76623A9F0509540952D
:10474000309521953F4F4F4F5F4F0DC020E030E037
:10475000A90109C02FEF3FEF4FEF5FE704C020E052
:1047600030E040E050E8B901CA012C96E2E00C9438
:10477000AE26A8E0B0E0EFEBF3E20C948C267B01D0
:104780008C011A82611571058105910519F482E089
:1047900089835FC083E089838EE1C82ED12CDC82BF
:1047A000CB82ED82FE820F831887C801B7010E9479
:1047B00031249C012150304037FF38C0EE27FF27BD
:1047C000E21BF30B40E050E0BA0181E090E0A0E092
:1047D000B0E00E2E04C0880F991FAA1FBB1F0A94B9
:1047E000D2F70197A109B1098E219F21A023B123FE
:1047F0000097A105B10521F041E050E060E070E0D4
:1048000004C016950795F794E794EA95D2F7E42A41
:10481000F52A062B172BED82FE820F8318878EE177
:1048200090E0821B930B9C838B8313C02115310571
:1048300081F0022E04C0EE0CFF1C001F111F0A9411
:10484000D2F7ED82FE820F831887C21AD30ADC8268
:10485000CB82CE0101960E9489242896E8E00C9430
:10486000A826AF92BF92CF92DF92EF92FF920F9362
:104870001F937B018C0180E0E81680E0F80681E060
:10488000080780E0180780F48FEFE816F1040105AF
:10489000110531F028F088E090E0A0E0B0E016C00B
:1048A00080E090E0DC0112C080E0E81680E0F806CD
:1048B00080E0080781E0180728F088E190E0A0E098
:1048C000B0E004C080E190E0A0E0B0E020E230E0A1
:1048D00040E050E0281B390B4A0B5B0B5701680185
:1048E00004C0D694C794B794A7948A95D2F7F501DB
:1048F000E45BFE4F8081281B310941095109C90140
:104900001F910F91FF90EF90DF90CF90BF90AF90ED
:104910000895CF92DF92EF92FF920F931F93FC01C5
:10492000248135814681578101818081823020F444
:1049300040618FEF90E0A2C0843009F49AC08230C9
:1049400019F480E090E097C021153105410551052B
:1049500019F480E090E092C0828193816FEF8238F9
:1049600096070CF058C062E87FEF681B790B6A313C
:10497000710524F020E030E0A9012AC069017A0124
:10498000062E04C0F694E794D794C7940A94D2F7FD
:1049900081E090E0A0E0B0E004C0880F991FAA1F5A
:1049A000BB1F6A95D2F70197A109B109822393230E
:1049B000A423B5230097A105B10521F081E090E083
:1049C000A0E0B0E09C01AD012C293D294E295F29D2
:1049D000DA01C9018F779070A070B07080349105B2
:1049E000A105B10539F427FF09C0205C3F4F4F4FA7
:1049F0005F4F04C0215C3F4F4F4F5F4F80E090E01E
:104A0000203060E0360760E0460760E4560748F172
:104A100081E090E026C0803891055CF581589F4F79
:104A20007FE7C72ED12CE12CF12CC222D322E42225
:104A3000F52260E4C616D104E104F10439F427FF3D
:104A400009C0205C3F4F4F4F5F4F04C0215C3F4F78
:104A50004F4F5F4F57FF05C05695479537952795A0
:104A6000019697E056954795379527959A95D1F7F2
:104A700005C08FEF90E020E030E0A901782F779516
:104A800077277795142F1F77602F6795662767958F
:104A90008695F12FF72BE82FE62B622F732F8F2FA0
:104AA0009E2F1F910F91FF90EF90DF90CF90089570
:104AB000FC01DB01208131818281482F4F7750E05A
:104AC000982F991F9927991F6381862F880F892B0B
:104AD00090E0661F6627661F11966C9311970097EA
:104AE00069F5211531054105510511F482E02FC00A
:104AF00082E89FEF13969C938E93129767E0220FA4
:104B0000331F441F551F6A95D1F783E08C930DC066
:104B1000220F331F441F551F12968D919C9113979E
:104B2000019713969C938E931297203080E038075C
:104B300080E0480780E4580758F322C08F3F910572
:104B400079F4211531054105510519F484E08C9360
:104B5000089544FF03C081E08C9312C01C9210C0E2
:104B60008F57904013969C938E93129783E08C936B
:104B700087E0220F331F441F551F8A95D1F75064D9
:104B800014962D933D934D935C9317970895EF9250
:104B9000FF920F931F93FC01DB018081823008F4A8
:104BA00047C09C91923008F443C0843051F4818115
:104BB0009430A1F511962C91119730E0281B310902
:104BC0003FC0943021F0823031F49230B9F1119627
:104BD0008C9111972BC08181923001F111969C919B
:104BE00011978917D9F44281538112962D913C91E6
:104BF00013972417350794F042175307BCF0E4804D
:104C0000F5800681178114962D913D914D915C910F
:104C100017972E153F054007510718F4882341F0D8
:104C20000AC0E216F3060407150740F4882319F0BA
:104C300021E030E005C02FEF3FEF02C020E030E080
:104C4000C9011F910F91FF90EF900895629FD001CD
:104C5000739FF001829FE00DF11D649FE00DF11D37
:104C6000929FF00D839FF00D749FF00D659FF00DE6
:104C70009927729FB00DE11DF91F639FB00DE11DD3
:104C8000F91FBD01CF0111240895A1E21A2EAA1B1C
:104C9000BB1BFD010DC0AA1FBB1FEE1FFF1FA217EC
:104CA000B307E407F50720F0A21BB30BE40BF50BE9
:104CB000661F771F881F991F1A9469F76095709572
:104CC000809590959B01AC01BD01CF01089597FBA4
:104CD000092E05260ED057FD04D0D7DF0AD0001CC0
:104CE00038F450954095309521953F4F4F4F5F4F89
:104CF0000895F6F790958095709561957F4F8F4F49
:104D00009F4F08952F923F924F925F926F927F92A2
:104D10008F929F92AF92BF92CF92DF92EF92FF92CB
:104D20000F931F93CF93DF93CDB7DEB7CA1BDB0B77
:104D30000FB6F894DEBF0FBECDBF09942A8839881C
:104D400048885F846E847D848C849B84AA84B98423
:104D5000C884DF80EE80FD800C811B81AA81B9812F
:104D6000CE0FD11D0FB6F894DEBF0FBECDBFED0143
:104D70000895EE0FFF1F0590F491E02D0994EF9236
:104D8000FF920F931F93CF93DF938230910510F41E
:104D900082E090E0C091CC03D091CD0320E030E0E0
:104DA00040E050E029C06881798168177907D8F020
:104DB0006817790779F48A819B812115310521F0E3
:104DC000F9019383828304C09093CD038093CC0335
:104DD000DE012AC04115510519F06417750718F452
:104DE000FE01AB01D9019E017A816B81E72EE701BB
:104DF0007E01062FF62EE7012097A9F641155105F1
:104E0000F9F0481B590B4430510580F4828193819D
:104E1000109729F013969C938E93129704C0909349
:104E2000CD038093CC03DF01129645C0DF01A40FB0
:104E3000B51F8D939D9342505040518340833BC09A
:104E40002091CA033091CB032115310541F4209103
:104E50004E0230914F023093CB032093CA0320912E
:104E60005002309151022115310541F42DB73EB762
:104E700040914C0250914D02241B350BA091CA0366
:104E8000B091CB03A217B307A0F42A1B3B0B281742
:104E9000390778F0AC014E5F5F4F2417350748F0B3
:104EA0004A0F5B1F5093CB034093CA038D939D938E
:104EB00002C0A0E0B0E0CD01CDB7DEB7E6E00C94D3
:104EC000AA26CF93DF93009709F48FC0FC01329795
:104ED000138212826091CC037091CD03611571052C
:104EE00081F420813181280F391F8091CA0390916C
:104EF000CB038217930761F5F093CB03E093CA03CA
:104F000074C0EB0180E090E0CE17DF0740F42A8107
:104F10003B81CE012115310501F1E901F5CFD383A4
:104F2000C283DF014D915D919D01240F351FC21792
:104F3000D30761F428813981240F351F2E5F3F4F3D
:104F4000318320832A813B8133832283009729F494
:104F5000F093CD03E093CC0348C0DC011396FC939F
:104F6000EE931297EC0149915991C40FD51FEC179C
:104F7000FD0779F420813181240F351F2E5F3F4FCB
:104F800011963C932E932281338113963C932E935A
:104F90001297E0E0F0E0DB0112968D919C9113975F
:104FA000009721F0E62FF72FBC01F5CF9B012E5F74
:104FB0003F4FDB018D919C911197820F931F409180
:104FC000CA035091CB034817590779F4309729F455
:104FD0001092CD031092CC0302C013821282225091
:104FE00030403093CB032093CA03DF91CF910895D3
:104FF000A0E0B0E0EEEFF7E20C948A26EC01E88046
:10500000F9800A811B81E114F1040105110541F4C5
:1050100084E2E82E89EDF82E8BE5082F87E0182F23
:10502000C801B7012DE133EF41E050E00E9467264F
:1050300027EA31E440E050E00E9426265B016C0143
:10504000C801B7012DE133EF41E050E00E9467262F
:10505000CA01B9012CEE34EF4FEF5FEF0E94262614
:105060009B01AC012A0D3B1D4C1D5D1D57FF04C06B
:105070002150304040405048288339834A835B8325
:105080005F77B901CA01CDB7DEB7EAE00C94A62676
:105090000E94F827089582E592E00E94F82708957B
:1050A000609352027093530280935402909355027E
:1050B0000895A0E0B0E0EFE5F8E20C948626EC015C
:1050C000CB01209741F40E94BF26E82EE7017E0124
:1050D000F92EE701B9C0BEEFEB2EBFEFFB2EEC0EB1
:1050E000FD1EAE01460F571F4E155F0508F4AAC0FE
:1050F000D7012D913C91119726173707C0F0253025
:10510000310508F4A1C0B9016450704068177907EF
:1051100008F49AC022503040281B390BFA01219321
:1051200031938D939C93CF010E9461278DC06B01B9
:10513000C21AD30A5E01A20EB31EE091CC03F09115
:10514000CD036624772400E010E045C0EA15FB0596
:10515000B9F560817181A2E08A2E912C860E971E8E
:105160008C149D0468F18B010C191D090E5F1F4FF3
:10517000B280A3800530110560F0FA01B282A382EB
:105180006C197D0971836083D70111969C938E936E
:1051900009C02E5F3F4F260F371FF7013183208351
:1051A000EB2DFA2D6114710431F0D3011396FC93A9
:1051B000EE93129749C0F093CD03E093CC0344C023
:1051C000608171810617170708F48B013F01728116
:1051D0006381E72FF62F309709F0B8CF2091CA03EB
:1051E0003091CB032A153B05E9F408171907D0F4D1
:1051F00020915002309151022115310541F42DB713
:105200003EB760914C0270914D02261B370B42173E
:105210005307C0F45093CB034093CA03F701918323
:10522000808312C00E94BF268C01009759F0D701DD
:105230004D915C91BE010E946929CE010E946127B7
:10524000E80102C0C0E0D0E0CE01CDB7DEB7EEE0AD
:105250000C94A2261F93FC0199278827BC01E8948F
:1052600011911032E9F3193010F01E30C8F31B32DF
:1052700051F01D3249F4689406C00E942F2A610F34
:10528000711D811D911D119110531A30B0F33EF420
:1052900090958095709561957F4F8F4F9F4F1F918F
:1052A000089591112CC1803219F089508550D0F7A2
:1052B00008959111089581548A5108F4805E855AA9
:1052C00008959111089581568A5108F480528558A5
:1052D0000895FB01DC0102C001900D924150504045
:1052E000D8F70895FB01DC010D900020E9F7119734
:1052F00001900D920020E1F70895FC01819186173D
:1053000021F08823D9F7992708953197CF0108957F
:10531000FB01DC018D91019080190110D9F3990BEB
:105320000895FB01DC0101900D920020E1F7089542
:10533000FB01DC014150504030F08D91019080190B
:1053400019F40020B9F7881B990B0895FB01DC01C3
:105350004150504048F001900D920020C9F701C023
:105360001D9241505040E0F70895FC0181E090E02B
:105370000190061609F4CF010020D1F70197089596
:10538000FB0151915523A9F0BF01DC014D91451757
:105390004111E1F759F4CD010190002049F04D9100
:1053A00040154111C9F3FB014111EFCF81E090E0BD
:1053B00001970895FB019F01E8944230C4F0453203
:1053C000B4F44A3029F497FB1EF4909581959F4FD1
:1053D000642F77270E94922A805D8A330CF0895DC2
:1053E0008193CB010097A1F716F45DE251931082EF
:1053F000C9010C94822AFA01CF93FF93EF932230D4
:1054000044F1253234F5C22FE894CA3049F497FBB1
:105410003EF490958095709561957F4F8F4F9F4F8B
:105420002C2F332744275527FF93EF930E944526BF
:10543000EF91FF91605D6A330CF0695D6193B90192
:10544000CA01605070408040904051F716F4CDE2A0
:10545000C19310828F919F91CF910C94822A592FE2
:10546000482F372F262F660F771F881F991F660F2B
:10547000771F881F991F620F731F841F951F660F68
:10548000771F881F991F0895FA01CF93FF93EF9319
:105490002230CCF02532BCF4C22F2C2F33274427E6
:1054A0005527FF93EF930E944526EF91FF91605D92
:1054B0006A330CF0695D6193B901CA0160507040B4
:1054C0008040904051F710828F919F91CF910C9422
:1054D000822AF999FECF92BD81BDF89A992780B5AD
:1054E0000895262FF999FECF1FBA92BD81BD20BD28
:1054F0000FB6F894FA9AF99A0FBE01960895992773
:1055000088270895DC01FC01672F71917723E1F76B
:10551000329704C07C916D9370836291AE17BF0780
:10552000C8F30895AA1BBB1B51E107C0AA1FBB1FEC
:10553000A617B70710F0A61BB70B881F991F5A951F
:10554000A9F780959095BC01CD010895F894FFCFFF
:1055500001000000000A0757077307A706D506BA1F
:1055600006F90600000000B01657077307B016B022
:1055700016B016B0162E0000000000B016570773C4
:1055800007FF000019324A62788DA2B4C5D4E1EC5D
:10559000F4FAFDFF0000000000000000000102021C
:1055A00003030303040404040404040405050505BB
:1055B0000505050505050505050505050606060697
:1055C000060606060606060606060606060606067B
:1055D0000606060606060606060606060707070767
:1055E000070707070707070707070707070707074B
:1055F000070707070707070707070707070707073B
:10560000070707070707070707070707070707072A
:105610000707070707070707070707070808080816
:1056200008080808080808080808080808080808FA
:1056300008080808080808080808080808080808EA
:1056400008080808080808080808080808080808DA
:1056500008080808080808080808080808080808CA
:1056600008080808080808080808080808080808BA
:1056700008080808080808080808080808080808AA
:10568000080808080808080808080808080808089A
:105690000808080808080808080808082000CE03B9
:0656A00000000100000003
:00000001FF
